{
  "_format": "hh-sol-artifact-1",
  "contractName": "PrivacyAirdropPLONK",
  "sourceName": "src/PrivacyAirdropPLONK.sol",
  "abi": [
    {
      "inputs": [
        {
          "internalType": "address",
          "name": "_token",
          "type": "address"
        },
        {
          "internalType": "bytes32",
          "name": "_merkleRoot",
          "type": "bytes32"
        },
        {
          "internalType": "uint256",
          "name": "_claimAmount",
          "type": "uint256"
        },
        {
          "internalType": "uint256",
          "name": "_claimDeadline",
          "type": "uint256"
        },
        {
          "internalType": "address",
          "name": "_verifier",
          "type": "address"
        }
      ],
      "stateMutability": "nonpayable",
      "type": "constructor"
    },
    {
      "inputs": [
        {
          "internalType": "address",
          "name": "owner",
          "type": "address"
        }
      ],
      "name": "OwnableInvalidOwner",
      "type": "error"
    },
    {
      "inputs": [
        {
          "internalType": "address",
          "name": "account",
          "type": "address"
        }
      ],
      "name": "OwnableUnauthorizedAccount",
      "type": "error"
    },
    {
      "inputs": [],
      "name": "ReentrancyGuardReentrantCall",
      "type": "error"
    },
    {
      "inputs": [
        {
          "internalType": "address",
          "name": "token",
          "type": "address"
        }
      ],
      "name": "SafeERC20FailedOperation",
      "type": "error"
    },
    {
      "anonymous": false,
      "inputs": [
        {
          "indexed": true,
          "internalType": "bytes32",
          "name": "nullifier",
          "type": "bytes32"
        },
        {
          "indexed": true,
          "internalType": "address",
          "name": "recipient",
          "type": "address"
        },
        {
          "indexed": false,
          "internalType": "uint256",
          "name": "timestamp",
          "type": "uint256"
        }
      ],
      "name": "Claimed",
      "type": "event"
    },
    {
      "anonymous": false,
      "inputs": [
        {
          "indexed": true,
          "internalType": "address",
          "name": "recipient",
          "type": "address"
        },
        {
          "indexed": false,
          "internalType": "uint256",
          "name": "amount",
          "type": "uint256"
        },
        {
          "indexed": false,
          "internalType": "uint256",
          "name": "timestamp",
          "type": "uint256"
        }
      ],
      "name": "EmergencyWithdraw",
      "type": "event"
    },
    {
      "anonymous": false,
      "inputs": [
        {
          "indexed": true,
          "internalType": "address",
          "name": "previousOwner",
          "type": "address"
        },
        {
          "indexed": true,
          "internalType": "address",
          "name": "newOwner",
          "type": "address"
        }
      ],
      "name": "OwnershipTransferred",
      "type": "event"
    },
    {
      "anonymous": false,
      "inputs": [
        {
          "indexed": true,
          "internalType": "address",
          "name": "account",
          "type": "address"
        }
      ],
      "name": "Paused",
      "type": "event"
    },
    {
      "anonymous": false,
      "inputs": [
        {
          "indexed": true,
          "internalType": "address",
          "name": "recipient",
          "type": "address"
        },
        {
          "indexed": false,
          "internalType": "uint256",
          "name": "amount",
          "type": "uint256"
        },
        {
          "indexed": false,
          "internalType": "uint256",
          "name": "timestamp",
          "type": "uint256"
        }
      ],
      "name": "TokensTransferred",
      "type": "event"
    },
    {
      "anonymous": false,
      "inputs": [
        {
          "indexed": true,
          "internalType": "address",
          "name": "account",
          "type": "address"
        }
      ],
      "name": "Unpaused",
      "type": "event"
    },
    {
      "inputs": [
        {
          "components": [
            {
              "internalType": "uint256[8]",
              "name": "proof",
              "type": "uint256[8]"
            }
          ],
          "internalType": "struct PrivacyAirdropPLONK.PLONKProof",
          "name": "proof",
          "type": "tuple"
        },
        {
          "internalType": "bytes32",
          "name": "nullifier",
          "type": "bytes32"
        },
        {
          "internalType": "address",
          "name": "recipient",
          "type": "address"
        }
      ],
      "name": "claim",
      "outputs": [],
      "stateMutability": "nonpayable",
      "type": "function"
    },
    {
      "inputs": [],
      "name": "claimAmount",
      "outputs": [
        {
          "internalType": "uint256",
          "name": "",
          "type": "uint256"
        }
      ],
      "stateMutability": "view",
      "type": "function"
    },
    {
      "inputs": [],
      "name": "claimDeadline",
      "outputs": [
        {
          "internalType": "uint256",
          "name": "",
          "type": "uint256"
        }
      ],
      "stateMutability": "view",
      "type": "function"
    },
    {
      "inputs": [
        {
          "internalType": "address",
          "name": "recipient",
          "type": "address"
        },
        {
          "internalType": "uint256",
          "name": "amount",
          "type": "uint256"
        }
      ],
      "name": "emergencyWithdraw",
      "outputs": [],
      "stateMutability": "nonpayable",
      "type": "function"
    },
    {
      "inputs": [],
      "name": "estimateClaimGas",
      "outputs": [
        {
          "internalType": "uint256",
          "name": "",
          "type": "uint256"
        }
      ],
      "stateMutability": "pure",
      "type": "function"
    },
    {
      "inputs": [
        {
          "internalType": "bytes32",
          "name": "nullifier",
          "type": "bytes32"
        }
      ],
      "name": "isClaimed",
      "outputs": [
        {
          "internalType": "bool",
          "name": "",
          "type": "bool"
        }
      ],
      "stateMutability": "view",
      "type": "function"
    },
    {
      "inputs": [],
      "name": "merkleRoot",
      "outputs": [
        {
          "internalType": "bytes32",
          "name": "",
          "type": "bytes32"
        }
      ],
      "stateMutability": "view",
      "type": "function"
    },
    {
      "inputs": [
        {
          "internalType": "bytes32",
          "name": "",
          "type": "bytes32"
        }
      ],
      "name": "nullifiers",
      "outputs": [
        {
          "internalType": "bool",
          "name": "",
          "type": "bool"
        }
      ],
      "stateMutability": "view",
      "type": "function"
    },
    {
      "inputs": [],
      "name": "owner",
      "outputs": [
        {
          "internalType": "address",
          "name": "",
          "type": "address"
        }
      ],
      "stateMutability": "view",
      "type": "function"
    },
    {
      "inputs": [],
      "name": "pause",
      "outputs": [],
      "stateMutability": "nonpayable",
      "type": "function"
    },
    {
      "inputs": [],
      "name": "paused",
      "outputs": [
        {
          "internalType": "bool",
          "name": "",
          "type": "bool"
        }
      ],
      "stateMutability": "view",
      "type": "function"
    },
    {
      "inputs": [],
      "name": "renounceOwnership",
      "outputs": [],
      "stateMutability": "nonpayable",
      "type": "function"
    },
    {
      "inputs": [],
      "name": "token",
      "outputs": [
        {
          "internalType": "contract IERC20",
          "name": "",
          "type": "address"
        }
      ],
      "stateMutability": "view",
      "type": "function"
    },
    {
      "inputs": [
        {
          "internalType": "address",
          "name": "newOwner",
          "type": "address"
        }
      ],
      "name": "transferOwnership",
      "outputs": [],
      "stateMutability": "nonpayable",
      "type": "function"
    },
    {
      "inputs": [],
      "name": "unpause",
      "outputs": [],
      "stateMutability": "nonpayable",
      "type": "function"
    },
    {
      "inputs": [],
      "name": "verifier",
      "outputs": [
        {
          "internalType": "contract IPLONKVerifier",
          "name": "",
          "type": "address"
        }
      ],
      "stateMutability": "view",
      "type": "function"
    }
  ],
  "bytecode": "0x6101206040523480156200001257600080fd5b5060405162000ea338038062000ea38339810160408190526200003591620002a0565b60016000558484848433806200006657604051631e4fbdf760e01b8152600060048201526024015b60405180910390fd5b620000718162000231565b506001600160a01b038416620000ca5760405162461bcd60e51b815260206004820152601560248201527f496e76616c696420746f6b656e2061646472657373000000000000000000000060448201526064016200005d565b82620001195760405162461bcd60e51b815260206004820152601360248201527f496e76616c6964206d65726b6c6520726f6f740000000000000000000000000060448201526064016200005d565b600082116200016b5760405162461bcd60e51b815260206004820152601460248201527f496e76616c696420636c61696d20616d6f756e7400000000000000000000000060448201526064016200005d565b428111620001af5760405162461bcd60e51b815260206004820152601060248201526f496e76616c696420646561646c696e6560801b60448201526064016200005d565b6001600160a01b0393841660a05260809290925260c05260e0528116620002195760405162461bcd60e51b815260206004820152601860248201527f496e76616c69642076657269666965722061646472657373000000000000000060448201526064016200005d565b6001600160a01b03166101005250620002f592505050565b600180546001600160a01b038381166001600160a01b0319831681179093556040519116919082907f8be0079c531659141344cd1fd0a4f28419497f9722a3daafe3b4186f6b6457e090600090a35050565b80516001600160a01b03811681146200029b57600080fd5b919050565b600080600080600060a08688031215620002b957600080fd5b620002c48662000283565b9450602086015193506040860151925060608601519150620002e96080870162000283565b90509295509295909350565b60805160a05160c05160e05161010051610b3f620003646000396000818161014201526106710152600081816101b60152818161036a015261052001526000818161020501526107440152600081816102a101526108b2015260008181610181015261062a0152610b3f6000f3fe608060405234801561001057600080fd5b50600436106101005760003560e01c8063830953ab11610097578063b89c395211610066578063b89c395214610253578063bf481ec514610276578063f2fde38b14610289578063fc0c546a1461029c57600080fd5b8063830953ab146102005780638456cb59146102275780638da5cb5b1461022f57806395ccea671461024057600080fd5b80633f4ba83a116100d35780633f4ba83a146101d85780635c975abb146101e2578063715018a6146101ef5780637f030402146101f757600080fd5b80632997e86b146101055780632b7ac3f31461013d5780632eb4a7ab1461017c5780633ba86c44146101b1575b600080fd5b6101286101133660046109e4565b60026020526000908152604090205460ff1681565b60405190151581526020015b60405180910390f35b6101647f000000000000000000000000000000000000000000000000000000000000000081565b6040516001600160a01b039091168152602001610134565b6101a37f000000000000000000000000000000000000000000000000000000000000000081565b604051908152602001610134565b6101a37f000000000000000000000000000000000000000000000000000000000000000081565b6101e06102c3565b005b6003546101289060ff1681565b6101e0610302565b6213d6206101a3565b6101a37f000000000000000000000000000000000000000000000000000000000000000081565b6101e0610316565b6001546001600160a01b0316610164565b6101e061024e366004610a19565b610358565b6101286102613660046109e4565b60009081526002602052604090205460ff1690565b6101e0610284366004610a43565b6104ca565b6101e0610297366004610a8a565b6107be565b6101647f000000000000000000000000000000000000000000000000000000000000000081565b6102cb6107fc565b6003805460ff1916905560405133907f5db9ee0a495bf2e6ff9c91a7834c1ba4fdd244a5e8aa4e537bd38aeae4b073aa90600090a2565b61030a6107fc565b6103146000610829565b565b61031e6107fc565b6003805460ff1916600117905560405133907f62e78cea01bee320cd4e420270b5ea74000d11b0c9f74754ebdbfc544b05a25890600090a2565b6103606107fc565b61036861087b565b7f000000000000000000000000000000000000000000000000000000000000000042116103d55760405162461bcd60e51b815260206004820152601660248201527510db185a5b481c195c9a5bd9081b9bdd08195b99195960521b60448201526064015b60405180910390fd5b6001600160a01b03821661041f5760405162461bcd60e51b8152602060048201526011602482015270125b9d985b1a59081c9958da5c1a595b9d607a1b60448201526064016103cc565b6000811161046f5760405162461bcd60e51b815260206004820181905260248201527f416d6f756e74206d7573742062652067726561746572207468616e207a65726f60448201526064016103cc565b61047982826108a5565b604080518281524260208201526001600160a01b038416917fbb757047c2b5f3974fe26b7c10f732e7bce710b0952a71082702781e62ae0595910160405180910390a26104c66001600055565b5050565b6104d261087b565b6003548190839060ff161561051e5760405162461bcd60e51b815260206004820152601260248201527110dbdb9d1c9858dd081a5cc81c185d5cd95960721b60448201526064016103cc565b7f00000000000000000000000000000000000000000000000000000000000000004211156105835760405162461bcd60e51b815260206004820152601260248201527110db185a5b481c195c9a5bd908195b99195960721b60448201526064016103cc565b6001600160a01b0382166105cd5760405162461bcd60e51b8152602060048201526011602482015270125b9d985b1a59081c9958da5c1a595b9d607a1b60448201526064016103cc565b60008181526002602052604090205460ff161561061e5760405162461bcd60e51b815260206004820152600f60248201526e105b1c9958591e4818db185a5b5959608a1b60448201526064016103cc565b604080516060810182527f000000000000000000000000000000000000000000000000000000000000000081526001600160a01b03808616602083015281830187905291516365c0325960e01b815290917f000000000000000000000000000000000000000000000000000000000000000016906365c03259906106a89089908590600401610aac565b602060405180830381865afa1580156106c5573d6000803e3d6000fd5b505050506040513d601f19601f820116820180604052508101906106e99190610ae7565b6107255760405162461bcd60e51b815260206004820152600d60248201526c24b73b30b634b210383937b7b360991b60448201526064016103cc565b6000858152600260205260409020805460ff19166001179055610768847f00000000000000000000000000000000000000000000000000000000000000006108a5565b836001600160a01b0316857f0508a8b4117d9a7b3d8f5895f6413e61b4f9a2df35afbfb41e78d0ecfff1843f426040516107a491815260200190565b60405180910390a35050506107b96001600055565b505050565b6107c66107fc565b6001600160a01b0381166107f057604051631e4fbdf760e01b8152600060048201526024016103cc565b6107f981610829565b50565b6001546001600160a01b031633146103145760405163118cdaa760e01b81523360048201526024016103cc565b600180546001600160a01b038381166001600160a01b0319831681179093556040519116919082907f8be0079c531659141344cd1fd0a4f28419497f9722a3daafe3b4186f6b6457e090600090a35050565b60026000540361089e57604051633ee5aeb560e01b815260040160405180910390fd5b6002600055565b6108d96001600160a01b037f0000000000000000000000000000000000000000000000000000000000000000168383610920565b604080518281524260208201526001600160a01b038416917f57e1000ba5ba7b6ab6670639de9fc3db34d05ef2bbce4a09d60dda560387b0ea910160405180910390a25050565b604080516001600160a01b03841660248201526044808201849052825180830390910181526064909101909152602080820180516001600160e01b031663a9059cbb60e01b17815282516107b9938793909260009283929183919082885af180610990576040513d6000823e3d81fd5b50506000513d915081156109a85780600114156109b5565b6001600160a01b0384163b155b156109de57604051635274afe760e01b81526001600160a01b03851660048201526024016103cc565b50505050565b6000602082840312156109f657600080fd5b5035919050565b80356001600160a01b0381168114610a1457600080fd5b919050565b60008060408385031215610a2c57600080fd5b610a35836109fd565b946020939093013593505050565b6000806000838503610140811215610a5a57600080fd5b61010080821215610a6a57600080fd5b8594508401359250610a81905061012084016109fd565b90509250925092565b600060208284031215610a9c57600080fd5b610aa5826109fd565b9392505050565b61016081016101008085843782018360005b6003811015610add578151835260209283019290910190600101610abe565b5050509392505050565b600060208284031215610af957600080fd5b81518015158114610aa557600080fdfea264697066735822122024d4a551358aa59b04167da0d93299dee55f26bfa42882e758fc38a718e79ab864736f6c63430008140033",
  "linkReferences": {},
  "deployedLinkReferences": {}
}